{
  "_format": "hh-sol-artifact-1",
  "contractName": "TheCont",
  "sourceName": "contracts/TheCont.sol",
  "abi": [
    {
      "inputs": [],
      "stateMutability": "nonpayable",
      "type": "constructor"
    },
    {
      "anonymous": false,
      "inputs": [
        {
          "indexed": true,
          "internalType": "address",
          "name": "owner",
          "type": "address"
        },
        {
          "indexed": true,
          "internalType": "address",
          "name": "spender",
          "type": "address"
        },
        {
          "indexed": false,
          "internalType": "uint256",
          "name": "value",
          "type": "uint256"
        }
      ],
      "name": "Approval",
      "type": "event"
    },
    {
      "anonymous": false,
      "inputs": [
        {
          "indexed": true,
          "internalType": "address",
          "name": "from",
          "type": "address"
        },
        {
          "indexed": true,
          "internalType": "address",
          "name": "to",
          "type": "address"
        },
        {
          "indexed": false,
          "internalType": "uint256",
          "name": "value",
          "type": "uint256"
        }
      ],
      "name": "Transfer",
      "type": "event"
    },
    {
      "inputs": [
        {
          "internalType": "address",
          "name": "owner",
          "type": "address"
        },
        {
          "internalType": "address",
          "name": "spender",
          "type": "address"
        }
      ],
      "name": "allowance",
      "outputs": [
        {
          "internalType": "uint256",
          "name": "",
          "type": "uint256"
        }
      ],
      "stateMutability": "view",
      "type": "function"
    },
    {
      "inputs": [
        {
          "internalType": "address",
          "name": "spender",
          "type": "address"
        },
        {
          "internalType": "uint256",
          "name": "amount",
          "type": "uint256"
        }
      ],
      "name": "approve",
      "outputs": [
        {
          "internalType": "bool",
          "name": "",
          "type": "bool"
        }
      ],
      "stateMutability": "nonpayable",
      "type": "function"
    },
    {
      "inputs": [
        {
          "internalType": "address",
          "name": "account",
          "type": "address"
        }
      ],
      "name": "balanceOf",
      "outputs": [
        {
          "internalType": "uint256",
          "name": "",
          "type": "uint256"
        }
      ],
      "stateMutability": "view",
      "type": "function"
    },
    {
      "inputs": [],
      "name": "createIt",
      "outputs": [
        {
          "internalType": "string",
          "name": "",
          "type": "string"
        }
      ],
      "stateMutability": "view",
      "type": "function"
    },
    {
      "inputs": [],
      "name": "decimals",
      "outputs": [
        {
          "internalType": "uint8",
          "name": "",
          "type": "uint8"
        }
      ],
      "stateMutability": "view",
      "type": "function"
    },
    {
      "inputs": [
        {
          "internalType": "address",
          "name": "spender",
          "type": "address"
        },
        {
          "internalType": "uint256",
          "name": "subtractedValue",
          "type": "uint256"
        }
      ],
      "name": "decreaseAllowance",
      "outputs": [
        {
          "internalType": "bool",
          "name": "",
          "type": "bool"
        }
      ],
      "stateMutability": "nonpayable",
      "type": "function"
    },
    {
      "inputs": [
        {
          "internalType": "address",
          "name": "spender",
          "type": "address"
        },
        {
          "internalType": "uint256",
          "name": "addedValue",
          "type": "uint256"
        }
      ],
      "name": "increaseAllowance",
      "outputs": [
        {
          "internalType": "bool",
          "name": "",
          "type": "bool"
        }
      ],
      "stateMutability": "nonpayable",
      "type": "function"
    },
    {
      "inputs": [],
      "name": "name",
      "outputs": [
        {
          "internalType": "string",
          "name": "",
          "type": "string"
        }
      ],
      "stateMutability": "view",
      "type": "function"
    },
    {
      "inputs": [],
      "name": "symbol",
      "outputs": [
        {
          "internalType": "string",
          "name": "",
          "type": "string"
        }
      ],
      "stateMutability": "view",
      "type": "function"
    },
    {
      "inputs": [],
      "name": "totalSupply",
      "outputs": [
        {
          "internalType": "uint256",
          "name": "",
          "type": "uint256"
        }
      ],
      "stateMutability": "view",
      "type": "function"
    },
    {
      "inputs": [
        {
          "internalType": "address",
          "name": "to",
          "type": "address"
        },
        {
          "internalType": "uint256",
          "name": "amount",
          "type": "uint256"
        }
      ],
      "name": "transfer",
      "outputs": [
        {
          "internalType": "bool",
          "name": "",
          "type": "bool"
        }
      ],
      "stateMutability": "nonpayable",
      "type": "function"
    },
    {
      "inputs": [
        {
          "internalType": "address",
          "name": "from",
          "type": "address"
        },
        {
          "internalType": "address",
          "name": "to",
          "type": "address"
        },
        {
          "internalType": "uint256",
          "name": "amount",
          "type": "uint256"
        }
      ],
      "name": "transferFrom",
      "outputs": [
        {
          "internalType": "bool",
          "name": "",
          "type": "bool"
        }
      ],
      "stateMutability": "nonpayable",
      "type": "function"
    }
  ],
  "bytecode": "0x60806040523480156200001157600080fd5b506040518060400160405280600781526020017f546865436f6e74000000000000000000000000000000000000000000000000008152506040518060400160405280600281526020017f544300000000000000000000000000000000000000000000000000000000000081525081600390805190602001906200009692919062000106565b508060049080519060200190620000af92919062000106565b5050506040518060400160405280601581526020017f546869732069732074686520636f6e747261637421000000000000000000000081525060059080519060200190620000ff92919062000106565b506200021b565b8280546200011490620001b6565b90600052602060002090601f01602090048101928262000138576000855562000184565b82601f106200015357805160ff191683800117855562000184565b8280016001018555821562000184579182015b828111156200018357825182559160200191906001019062000166565b5b50905062000193919062000197565b5090565b5b80821115620001b257600081600090555060010162000198565b5090565b60006002820490506001821680620001cf57607f821691505b60208210811415620001e657620001e5620001ec565b5b50919050565b7f4e487b7100000000000000000000000000000000000000000000000000000000600052602260045260246000fd5b6112b1806200022b6000396000f3fe608060405234801561001057600080fd5b50600436106100b45760003560e01c806370a082311161007157806370a08231146101a357806395d89b41146101d3578063a07b96bd146101f1578063a457c2d71461020f578063a9059cbb1461023f578063dd62ed3e1461026f576100b4565b806306fdde03146100b9578063095ea7b3146100d757806318160ddd1461010757806323b872dd14610125578063313ce567146101555780633950935114610173575b600080fd5b6100c161029f565b6040516100ce9190610f7a565b60405180910390f35b6100f160048036038101906100ec9190610c19565b610331565b6040516100fe9190610f5f565b60405180910390f35b61010f610354565b60405161011c919061107c565b60405180910390f35b61013f600480360381019061013a9190610bca565b61035e565b60405161014c9190610f5f565b60405180910390f35b61015d61038d565b60405161016a9190611097565b60405180910390f35b61018d60048036038101906101889190610c19565b610396565b60405161019a9190610f5f565b60405180910390f35b6101bd60048036038101906101b89190610b65565b6103cd565b6040516101ca919061107c565b60405180910390f35b6101db610415565b6040516101e89190610f7a565b60405180910390f35b6101f96104a7565b6040516102069190610f7a565b60405180910390f35b61022960048036038101906102249190610c19565b610539565b6040516102369190610f5f565b60405180910390f35b61025960048036038101906102549190610c19565b6105b0565b6040516102669190610f5f565b60405180910390f35b61028960048036038101906102849190610b8e565b6105d3565b604051610296919061107c565b60405180910390f35b6060600380546102ae906111ac565b80601f01602080910402602001604051908101604052809291908181526020018280546102da906111ac565b80156103275780601f106102fc57610100808354040283529160200191610327565b820191906000526020600020905b81548152906001019060200180831161030a57829003601f168201915b5050505050905090565b60008061033c61065a565b9050610349818585610662565b600191505092915050565b6000600254905090565b60008061036961065a565b905061037685828561082d565b6103818585856108b9565b60019150509392505050565b60006012905090565b6000806103a161065a565b90506103c28185856103b385896105d3565b6103bd91906110ce565b610662565b600191505092915050565b60008060008373ffffffffffffffffffffffffffffffffffffffff1673ffffffffffffffffffffffffffffffffffffffff168152602001908152602001600020549050919050565b606060048054610424906111ac565b80601f0160208091040260200160405190810160405280929190818152602001828054610450906111ac565b801561049d5780601f106104725761010080835404028352916020019161049d565b820191906000526020600020905b81548152906001019060200180831161048057829003601f168201915b5050505050905090565b6060600580546104b6906111ac565b80601f01602080910402602001604051908101604052809291908181526020018280546104e2906111ac565b801561052f5780601f106105045761010080835404028352916020019161052f565b820191906000526020600020905b81548152906001019060200180831161051257829003601f168201915b5050505050905090565b60008061054461065a565b9050600061055282866105d3565b905083811015610597576040517f08c379a000000000000000000000000000000000000000000000000000000000815260040161058e9061105c565b60405180910390fd5b6105a48286868403610662565b60019250505092915050565b6000806105bb61065a565b90506105c88185856108b9565b600191505092915050565b6000600160008473ffffffffffffffffffffffffffffffffffffffff1673ffffffffffffffffffffffffffffffffffffffff16815260200190815260200160002060008373ffffffffffffffffffffffffffffffffffffffff1673ffffffffffffffffffffffffffffffffffffffff16815260200190815260200160002054905092915050565b600033905090565b600073ffffffffffffffffffffffffffffffffffffffff168373ffffffffffffffffffffffffffffffffffffffff1614156106d2576040517f08c379a00000000000000000000000000000000000000000000000000000000081526004016106c99061103c565b60405180910390fd5b600073ffffffffffffffffffffffffffffffffffffffff168273ffffffffffffffffffffffffffffffffffffffff161415610742576040517f08c379a000000000000000000000000000000000000000000000000000000000815260040161073990610fbc565b60405180910390fd5b80600160008573ffffffffffffffffffffffffffffffffffffffff1673ffffffffffffffffffffffffffffffffffffffff16815260200190815260200160002060008473ffffffffffffffffffffffffffffffffffffffff1673ffffffffffffffffffffffffffffffffffffffff168152602001908152602001600020819055508173ffffffffffffffffffffffffffffffffffffffff168373ffffffffffffffffffffffffffffffffffffffff167f8c5be1e5ebec7d5bd14f71427d1e84f3dd0314c0f7b2291e5b200ac8c7c3b92583604051610820919061107c565b60405180910390a3505050565b600061083984846105d3565b90507fffffffffffffffffffffffffffffffffffffffffffffffffffffffffffffffff81146108b357818110156108a5576040517f08c379a000000000000000000000000000000000000000000000000000000000815260040161089c90610fdc565b60405180910390fd5b6108b28484848403610662565b5b50505050565b600073ffffffffffffffffffffffffffffffffffffffff168373ffffffffffffffffffffffffffffffffffffffff161415610929576040517f08c379a00000000000000000000000000000000000000000000000000000000081526004016109209061101c565b60405180910390fd5b600073ffffffffffffffffffffffffffffffffffffffff168273ffffffffffffffffffffffffffffffffffffffff161415610999576040517f08c379a000000000000000000000000000000000000000000000000000000000815260040161099090610f9c565b60405180910390fd5b6109a4838383610b31565b60008060008573ffffffffffffffffffffffffffffffffffffffff1673ffffffffffffffffffffffffffffffffffffffff16815260200190815260200160002054905081811015610a2a576040517f08c379a0000000000000000000000000000000000000000000000000000000008152600401610a2190610ffc565b60405180910390fd5b8181036000808673ffffffffffffffffffffffffffffffffffffffff1673ffffffffffffffffffffffffffffffffffffffff16815260200190815260200160002081905550816000808573ffffffffffffffffffffffffffffffffffffffff1673ffffffffffffffffffffffffffffffffffffffff168152602001908152602001600020600082825401925050819055508273ffffffffffffffffffffffffffffffffffffffff168473ffffffffffffffffffffffffffffffffffffffff167fddf252ad1be2c89b69c2b068fc378daa952ba7f163c4a11628f55a4df523b3ef84604051610b18919061107c565b60405180910390a3610b2b848484610b36565b50505050565b505050565b505050565b600081359050610b4a8161124d565b92915050565b600081359050610b5f81611264565b92915050565b600060208284031215610b7757600080fd5b6000610b8584828501610b3b565b91505092915050565b60008060408385031215610ba157600080fd5b6000610baf85828601610b3b565b9250506020610bc085828601610b3b565b9150509250929050565b600080600060608486031215610bdf57600080fd5b6000610bed86828701610b3b565b9350506020610bfe86828701610b3b565b9250506040610c0f86828701610b50565b9150509250925092565b60008060408385031215610c2c57600080fd5b6000610c3a85828601610b3b565b9250506020610c4b85828601610b50565b9150509250929050565b610c5e81611136565b82525050565b6000610c6f826110b2565b610c7981856110bd565b9350610c89818560208601611179565b610c928161123c565b840191505092915050565b6000610caa6023836110bd565b91507f45524332303a207472616e7366657220746f20746865207a65726f206164647260008301527f65737300000000000000000000000000000000000000000000000000000000006020830152604082019050919050565b6000610d106022836110bd565b91507f45524332303a20617070726f766520746f20746865207a65726f20616464726560008301527f73730000000000000000000000000000000000000000000000000000000000006020830152604082019050919050565b6000610d76601d836110bd565b91507f45524332303a20696e73756666696369656e7420616c6c6f77616e63650000006000830152602082019050919050565b6000610db66026836110bd565b91507f45524332303a207472616e7366657220616d6f756e742065786365656473206260008301527f616c616e636500000000000000000000000000000000000000000000000000006020830152604082019050919050565b6000610e1c6025836110bd565b91507f45524332303a207472616e736665722066726f6d20746865207a65726f20616460008301527f64726573730000000000000000000000000000000000000000000000000000006020830152604082019050919050565b6000610e826024836110bd565b91507f45524332303a20617070726f76652066726f6d20746865207a65726f2061646460008301527f72657373000000000000000000000000000000000000000000000000000000006020830152604082019050919050565b6000610ee86025836110bd565b91507f45524332303a2064656372656173656420616c6c6f77616e63652062656c6f7760008301527f207a65726f0000000000000000000000000000000000000000000000000000006020830152604082019050919050565b610f4a81611162565b82525050565b610f598161116c565b82525050565b6000602082019050610f746000830184610c55565b92915050565b60006020820190508181036000830152610f948184610c64565b905092915050565b60006020820190508181036000830152610fb581610c9d565b9050919050565b60006020820190508181036000830152610fd581610d03565b9050919050565b60006020820190508181036000830152610ff581610d69565b9050919050565b6000602082019050818103600083015261101581610da9565b9050919050565b6000602082019050818103600083015261103581610e0f565b9050919050565b6000602082019050818103600083015261105581610e75565b9050919050565b6000602082019050818103600083015261107581610edb565b9050919050565b60006020820190506110916000830184610f41565b92915050565b60006020820190506110ac6000830184610f50565b92915050565b600081519050919050565b600082825260208201905092915050565b60006110d982611162565b91506110e483611162565b9250827fffffffffffffffffffffffffffffffffffffffffffffffffffffffffffffffff03821115611119576111186111de565b5b828201905092915050565b600061112f82611142565b9050919050565b60008115159050919050565b600073ffffffffffffffffffffffffffffffffffffffff82169050919050565b6000819050919050565b600060ff82169050919050565b60005b8381101561119757808201518184015260208101905061117c565b838111156111a6576000848401525b50505050565b600060028204905060018216806111c457607f821691505b602082108114156111d8576111d761120d565b5b50919050565b7f4e487b7100000000000000000000000000000000000000000000000000000000600052601160045260246000fd5b7f4e487b7100000000000000000000000000000000000000000000000000000000600052602260045260246000fd5b6000601f19601f8301169050919050565b61125681611124565b811461126157600080fd5b50565b61126d81611162565b811461127857600080fd5b5056fea2646970667358221220ffb699e848c3c04294b4ca18154a373005a6f6e202e94e05c46fffafba5f732f64736f6c63430008000033",
  "linkReferences": {},
  "deployedLinkReferences": {}
}